{
  "_format": "hh-sol-artifact-1",
  "contractName": "CompanyFunding",
  "sourceName": "contracts/CompanyFunding.sol",
  "abi": [
    {
      "inputs": [
        {
          "internalType": "contract IERC20Decimals",
          "name": "_token",
          "type": "address"
        },
        {
          "internalType": "address",
          "name": "admin",
          "type": "address"
        }
      ],
      "stateMutability": "nonpayable",
      "type": "constructor"
    },
    {
      "inputs": [],
      "name": "InsufficientBalance",
      "type": "error"
    },
    {
      "inputs": [],
      "name": "NotInsurance",
      "type": "error"
    },
    {
      "anonymous": false,
      "inputs": [
        {
          "indexed": true,
          "internalType": "address",
          "name": "company",
          "type": "address"
        },
        {
          "indexed": false,
          "internalType": "uint256",
          "name": "amount",
          "type": "uint256"
        }
      ],
      "name": "CompanyFunded",
      "type": "event"
    },
    {
      "anonymous": false,
      "inputs": [
        {
          "indexed": true,
          "internalType": "address",
          "name": "company",
          "type": "address"
        },
        {
          "indexed": false,
          "internalType": "uint256",
          "name": "amount",
          "type": "uint256"
        }
      ],
      "name": "CompanyWithdrawn",
      "type": "event"
    },
    {
      "anonymous": false,
      "inputs": [
        {
          "indexed": true,
          "internalType": "address",
          "name": "company",
          "type": "address"
        },
        {
          "indexed": true,
          "internalType": "address",
          "name": "user",
          "type": "address"
        },
        {
          "indexed": true,
          "internalType": "uint256",
          "name": "policyId",
          "type": "uint256"
        },
        {
          "indexed": false,
          "internalType": "uint256",
          "name": "amount",
          "type": "uint256"
        }
      ],
      "name": "CompensationPaid",
      "type": "event"
    },
    {
      "anonymous": false,
      "inputs": [
        {
          "indexed": true,
          "internalType": "bytes32",
          "name": "role",
          "type": "bytes32"
        },
        {
          "indexed": true,
          "internalType": "bytes32",
          "name": "previousAdminRole",
          "type": "bytes32"
        },
        {
          "indexed": true,
          "internalType": "bytes32",
          "name": "newAdminRole",
          "type": "bytes32"
        }
      ],
      "name": "RoleAdminChanged",
      "type": "event"
    },
    {
      "anonymous": false,
      "inputs": [
        {
          "indexed": true,
          "internalType": "bytes32",
          "name": "role",
          "type": "bytes32"
        },
        {
          "indexed": true,
          "internalType": "address",
          "name": "account",
          "type": "address"
        },
        {
          "indexed": true,
          "internalType": "address",
          "name": "sender",
          "type": "address"
        }
      ],
      "name": "RoleGranted",
      "type": "event"
    },
    {
      "anonymous": false,
      "inputs": [
        {
          "indexed": true,
          "internalType": "bytes32",
          "name": "role",
          "type": "bytes32"
        },
        {
          "indexed": true,
          "internalType": "address",
          "name": "account",
          "type": "address"
        },
        {
          "indexed": true,
          "internalType": "address",
          "name": "sender",
          "type": "address"
        }
      ],
      "name": "RoleRevoked",
      "type": "event"
    },
    {
      "inputs": [],
      "name": "DEFAULT_ADMIN_ROLE",
      "outputs": [
        {
          "internalType": "bytes32",
          "name": "",
          "type": "bytes32"
        }
      ],
      "stateMutability": "view",
      "type": "function"
    },
    {
      "inputs": [],
      "name": "INSURANCE_ROLE",
      "outputs": [
        {
          "internalType": "bytes32",
          "name": "",
          "type": "bytes32"
        }
      ],
      "stateMutability": "view",
      "type": "function"
    },
    {
      "inputs": [
        {
          "internalType": "address",
          "name": "",
          "type": "address"
        }
      ],
      "name": "companyBalances",
      "outputs": [
        {
          "internalType": "uint256",
          "name": "",
          "type": "uint256"
        }
      ],
      "stateMutability": "view",
      "type": "function"
    },
    {
      "inputs": [
        {
          "internalType": "uint256",
          "name": "amount",
          "type": "uint256"
        }
      ],
      "name": "fundCompany",
      "outputs": [],
      "stateMutability": "nonpayable",
      "type": "function"
    },
    {
      "inputs": [
        {
          "internalType": "bytes32",
          "name": "role",
          "type": "bytes32"
        }
      ],
      "name": "getRoleAdmin",
      "outputs": [
        {
          "internalType": "bytes32",
          "name": "",
          "type": "bytes32"
        }
      ],
      "stateMutability": "view",
      "type": "function"
    },
    {
      "inputs": [
        {
          "internalType": "address",
          "name": "insurance",
          "type": "address"
        }
      ],
      "name": "grantInsuranceRole",
      "outputs": [],
      "stateMutability": "nonpayable",
      "type": "function"
    },
    {
      "inputs": [
        {
          "internalType": "bytes32",
          "name": "role",
          "type": "bytes32"
        },
        {
          "internalType": "address",
          "name": "account",
          "type": "address"
        }
      ],
      "name": "grantRole",
      "outputs": [],
      "stateMutability": "nonpayable",
      "type": "function"
    },
    {
      "inputs": [
        {
          "internalType": "bytes32",
          "name": "role",
          "type": "bytes32"
        },
        {
          "internalType": "address",
          "name": "account",
          "type": "address"
        }
      ],
      "name": "hasRole",
      "outputs": [
        {
          "internalType": "bool",
          "name": "",
          "type": "bool"
        }
      ],
      "stateMutability": "view",
      "type": "function"
    },
    {
      "inputs": [
        {
          "internalType": "address",
          "name": "company",
          "type": "address"
        },
        {
          "internalType": "address",
          "name": "user",
          "type": "address"
        },
        {
          "internalType": "uint256",
          "name": "policyId",
          "type": "uint256"
        },
        {
          "internalType": "uint256",
          "name": "amount",
          "type": "uint256"
        }
      ],
      "name": "payCompensation",
      "outputs": [],
      "stateMutability": "nonpayable",
      "type": "function"
    },
    {
      "inputs": [
        {
          "internalType": "bytes32",
          "name": "role",
          "type": "bytes32"
        },
        {
          "internalType": "address",
          "name": "account",
          "type": "address"
        }
      ],
      "name": "renounceRole",
      "outputs": [],
      "stateMutability": "nonpayable",
      "type": "function"
    },
    {
      "inputs": [
        {
          "internalType": "bytes32",
          "name": "role",
          "type": "bytes32"
        },
        {
          "internalType": "address",
          "name": "account",
          "type": "address"
        }
      ],
      "name": "revokeRole",
      "outputs": [],
      "stateMutability": "nonpayable",
      "type": "function"
    },
    {
      "inputs": [
        {
          "internalType": "bytes4",
          "name": "interfaceId",
          "type": "bytes4"
        }
      ],
      "name": "supportsInterface",
      "outputs": [
        {
          "internalType": "bool",
          "name": "",
          "type": "bool"
        }
      ],
      "stateMutability": "view",
      "type": "function"
    },
    {
      "inputs": [],
      "name": "token",
      "outputs": [
        {
          "internalType": "contract IERC20Decimals",
          "name": "",
          "type": "address"
        }
      ],
      "stateMutability": "view",
      "type": "function"
    },
    {
      "inputs": [
        {
          "internalType": "uint256",
          "name": "amount",
          "type": "uint256"
        }
      ],
      "name": "withdrawCompany",
      "outputs": [],
      "stateMutability": "nonpayable",
      "type": "function"
    }
  ],
  "bytecode": "0x60a060405234801561001057600080fd5b50604051610f2b380380610f2b83398101604081905261002f91610105565b6001600160a01b03821660805261004760008261004e565b505061013f565b6000828152602081815260408083206001600160a01b038516845290915290205460ff166100e9576000828152602081815260408083206001600160a01b03851684529091529020805460ff191660011790556100a83390565b6001600160a01b0316816001600160a01b0316837f2f8788117e7eff1d82e926ec794901d17c78024a50270940304540a733656f0d60405160405180910390a45b5050565b6001600160a01b038116811461010257600080fd5b50565b6000806040838503121561011857600080fd5b8251610123816100ed565b6020840151909250610134816100ed565b809150509250929050565b608051610dbc61016f600039600081816102360152818161031701528181610513015261068c0152610dbc6000f3fe608060405234801561001057600080fd5b50600436106100ea5760003560e01c8063411355861161008c578063a217fddf11610066578063a217fddf146101ef578063b752a74b146101f7578063d547741f1461021e578063fc0c546a1461023157600080fd5b806341135586146101b6578063886f0f95146101c957806391d14854146101dc57600080fd5b8063248a9ca3116100c8578063248a9ca31461015a5780632f2ff15d1461017d57806336568abe14610190578063385e285b146101a357600080fd5b806301ffc9a7146100ef578063074b6c14146101175780630b6fc23914610145575b600080fd5b6101026100fd366004610af1565b610270565b60405190151581526020015b60405180910390f35b610137610125366004610b37565b60016020526000908152604090205481565b60405190815260200161010e565b610158610153366004610b52565b6102a7565b005b610137610168366004610b52565b60009081526020819052604090206001015490565b61015861018b366004610b6b565b6103ea565b61015861019e366004610b6b565b610414565b6101586101b1366004610b52565b610492565b6101586101c4366004610b97565b6105d6565b6101586101d7366004610b37565b61076a565b6101026101ea366004610b6b565b61079f565b610137600081565b6101377ffec7cd74e5c65b641d49ecc2e89f646c7c0bcae85dc50f9616bf9c798cedda8b81565b61015861022c366004610b6b565b6107c8565b6102587f000000000000000000000000000000000000000000000000000000000000000081565b6040516001600160a01b03909116815260200161010e565b60006001600160e01b03198216637965db0b60e01b14806102a157506301ffc9a760e01b6001600160e01b03198316145b92915050565b336000908152600160205260409020548111156102d757604051631e9acf1760e31b815260040160405180910390fd5b33600090815260016020526040812080548392906102f6908490610bef565b909155505060405163a9059cbb60e01b8152336004820152602481018290527f00000000000000000000000000000000000000000000000000000000000000006001600160a01b03169063a9059cbb906044016020604051808303816000875af1158015610368573d6000803e3d6000fd5b505050506040513d601f19601f8201168201806040525081019061038c9190610c02565b6103b15760405162461bcd60e51b81526004016103a890610c24565b60405180910390fd5b60405181815233907f65305606dea28fc8c58524b3e3c1735f8065e6dc05580d0f73dc2d9e9a8d0e67906020015b60405180910390a250565b600082815260208190526040902060010154610405816107ed565b61040f83836107fa565b505050565b6001600160a01b03811633146104845760405162461bcd60e51b815260206004820152602f60248201527f416363657373436f6e74726f6c3a2063616e206f6e6c792072656e6f756e636560448201526e103937b632b9903337b91039b2b63360891b60648201526084016103a8565b61048e828261087e565b5050565b600081116104cd5760405162461bcd60e51b81526020600482015260086024820152670616d6f756e743d360c41b60448201526064016103a8565b33600090815260016020526040812080548392906104ec908490610c4d565b90915550506040516323b872dd60e01b8152336004820152306024820152604481018290527f00000000000000000000000000000000000000000000000000000000000000006001600160a01b0316906323b872dd906064016020604051808303816000875af1158015610564573d6000803e3d6000fd5b505050506040513d601f19601f820116820180604052508101906105889190610c02565b6105a45760405162461bcd60e51b81526004016103a890610c24565b60405181815233907f408f3cfddf66d8a9ca25e58972cd2a887479484d228e1b07df6196054a3edbda906020016103df565b7ffec7cd74e5c65b641d49ecc2e89f646c7c0bcae85dc50f9616bf9c798cedda8b610600816107ed565b6001600160a01b03851660009081526001602052604090205482111561063957604051631e9acf1760e31b815260040160405180910390fd5b6001600160a01b03851660009081526001602052604081208054849290610661908490610bef565b909155505060405163a9059cbb60e01b81526001600160a01b038581166004830152602482018490527f0000000000000000000000000000000000000000000000000000000000000000169063a9059cbb906044016020604051808303816000875af11580156106d5573d6000803e3d6000fd5b505050506040513d601f19601f820116820180604052508101906106f99190610c02565b6107155760405162461bcd60e51b81526004016103a890610c24565b82846001600160a01b0316866001600160a01b03167f8545eb96f8794627a09931945c6926c44229aea4577b765f1024a95f4eced0e28560405161075b91815260200190565b60405180910390a45050505050565b6000610775816107ed565b61048e7ffec7cd74e5c65b641d49ecc2e89f646c7c0bcae85dc50f9616bf9c798cedda8b836107fa565b6000918252602082815260408084206001600160a01b0393909316845291905290205460ff1690565b6000828152602081905260409020600101546107e3816107ed565b61040f838361087e565b6107f781336108e3565b50565b610804828261079f565b61048e576000828152602081815260408083206001600160a01b03851684529091529020805460ff1916600117905561083a3390565b6001600160a01b0316816001600160a01b0316837f2f8788117e7eff1d82e926ec794901d17c78024a50270940304540a733656f0d60405160405180910390a45050565b610888828261079f565b1561048e576000828152602081815260408083206001600160a01b0385168085529252808320805460ff1916905551339285917ff6391f5c32d9c69d2a47ea670b442974b53935d1edc7fd64eb21e047a839171b9190a45050565b6108ed828261079f565b61048e576108fa8161093c565b61090583602061094e565b604051602001610916929190610c84565b60408051601f198184030181529082905262461bcd60e51b82526103a891600401610cf9565b60606102a16001600160a01b03831660145b6060600061095d836002610d2c565b610968906002610c4d565b67ffffffffffffffff81111561098057610980610d43565b6040519080825280601f01601f1916602001820160405280156109aa576020820181803683370190505b509050600360fc1b816000815181106109c5576109c5610d59565b60200101906001600160f81b031916908160001a905350600f60fb1b816001815181106109f4576109f4610d59565b60200101906001600160f81b031916908160001a9053506000610a18846002610d2c565b610a23906001610c4d565b90505b6001811115610a9b576f181899199a1a9b1b9c1cb0b131b232b360811b85600f1660108110610a5757610a57610d59565b1a60f81b828281518110610a6d57610a6d610d59565b60200101906001600160f81b031916908160001a90535060049490941c93610a9481610d6f565b9050610a26565b508315610aea5760405162461bcd60e51b815260206004820181905260248201527f537472696e67733a20686578206c656e67746820696e73756666696369656e7460448201526064016103a8565b9392505050565b600060208284031215610b0357600080fd5b81356001600160e01b031981168114610aea57600080fd5b80356001600160a01b0381168114610b3257600080fd5b919050565b600060208284031215610b4957600080fd5b610aea82610b1b565b600060208284031215610b6457600080fd5b5035919050565b60008060408385031215610b7e57600080fd5b82359150610b8e60208401610b1b565b90509250929050565b60008060008060808587031215610bad57600080fd5b610bb685610b1b565b9350610bc460208601610b1b565b93969395505050506040820135916060013590565b634e487b7160e01b600052601160045260246000fd5b818103818111156102a1576102a1610bd9565b600060208284031215610c1457600080fd5b81518015158114610aea57600080fd5b6020808252600f908201526e1d1c985b9cd9995c8819985a5b1959608a1b604082015260600190565b808201808211156102a1576102a1610bd9565b60005b83811015610c7b578181015183820152602001610c63565b50506000910152565b7f416363657373436f6e74726f6c3a206163636f756e7420000000000000000000815260008351610cbc816017850160208801610c60565b7001034b99036b4b9b9b4b733903937b6329607d1b6017918401918201528351610ced816028840160208801610c60565b01602801949350505050565b6020815260008251806020840152610d18816040850160208701610c60565b601f01601f19169190910160400192915050565b80820281158282048414176102a1576102a1610bd9565b634e487b7160e01b600052604160045260246000fd5b634e487b7160e01b600052603260045260246000fd5b600081610d7e57610d7e610bd9565b50600019019056fea2646970667358221220553a2d1cd4cd50709a74cf654073faa64a8568b6fbbc1ea3bb2cef6c9ff9925f64736f6c63430008140033",
  "linkReferences": {},
  "deployedLinkReferences": {}
}