{
  "_format": "hh-sol-artifact-1",
  "contractName": "TicketProvider",
  "sourceName": "contracts/TicketProvider.sol",
  "abi": [
    {
      "inputs": [
        {
          "internalType": "address",
          "name": "admin",
          "type": "address"
        }
      ],
      "stateMutability": "nonpayable",
      "type": "constructor"
    },
    {
      "inputs": [],
      "name": "InvalidInput",
      "type": "error"
    },
    {
      "inputs": [],
      "name": "NotCompany",
      "type": "error"
    },
    {
      "anonymous": false,
      "inputs": [
        {
          "indexed": true,
          "internalType": "address",
          "name": "company",
          "type": "address"
        },
        {
          "indexed": false,
          "internalType": "string",
          "name": "name",
          "type": "string"
        },
        {
          "indexed": false,
          "internalType": "string",
          "name": "metadataURI",
          "type": "string"
        }
      ],
      "name": "CompanyRegistered",
      "type": "event"
    },
    {
      "anonymous": false,
      "inputs": [
        {
          "indexed": true,
          "internalType": "address",
          "name": "company",
          "type": "address"
        },
        {
          "indexed": false,
          "internalType": "bool",
          "name": "active",
          "type": "bool"
        }
      ],
      "name": "CompanyStatusUpdated",
      "type": "event"
    },
    {
      "anonymous": false,
      "inputs": [
        {
          "indexed": true,
          "internalType": "bytes32",
          "name": "flightKey",
          "type": "bytes32"
        },
        {
          "indexed": false,
          "internalType": "string",
          "name": "flightId",
          "type": "string"
        },
        {
          "indexed": true,
          "internalType": "address",
          "name": "company",
          "type": "address"
        },
        {
          "indexed": false,
          "internalType": "uint64",
          "name": "departureTime",
          "type": "uint64"
        }
      ],
      "name": "FlightRegistered",
      "type": "event"
    },
    {
      "anonymous": false,
      "inputs": [
        {
          "indexed": true,
          "internalType": "bytes32",
          "name": "role",
          "type": "bytes32"
        },
        {
          "indexed": true,
          "internalType": "bytes32",
          "name": "previousAdminRole",
          "type": "bytes32"
        },
        {
          "indexed": true,
          "internalType": "bytes32",
          "name": "newAdminRole",
          "type": "bytes32"
        }
      ],
      "name": "RoleAdminChanged",
      "type": "event"
    },
    {
      "anonymous": false,
      "inputs": [
        {
          "indexed": true,
          "internalType": "bytes32",
          "name": "role",
          "type": "bytes32"
        },
        {
          "indexed": true,
          "internalType": "address",
          "name": "account",
          "type": "address"
        },
        {
          "indexed": true,
          "internalType": "address",
          "name": "sender",
          "type": "address"
        }
      ],
      "name": "RoleGranted",
      "type": "event"
    },
    {
      "anonymous": false,
      "inputs": [
        {
          "indexed": true,
          "internalType": "bytes32",
          "name": "role",
          "type": "bytes32"
        },
        {
          "indexed": true,
          "internalType": "address",
          "name": "account",
          "type": "address"
        },
        {
          "indexed": true,
          "internalType": "address",
          "name": "sender",
          "type": "address"
        }
      ],
      "name": "RoleRevoked",
      "type": "event"
    },
    {
      "inputs": [],
      "name": "COMPANY_ROLE",
      "outputs": [
        {
          "internalType": "bytes32",
          "name": "",
          "type": "bytes32"
        }
      ],
      "stateMutability": "view",
      "type": "function"
    },
    {
      "inputs": [],
      "name": "DEFAULT_ADMIN_ROLE",
      "outputs": [
        {
          "internalType": "bytes32",
          "name": "",
          "type": "bytes32"
        }
      ],
      "stateMutability": "view",
      "type": "function"
    },
    {
      "inputs": [
        {
          "internalType": "address",
          "name": "",
          "type": "address"
        }
      ],
      "name": "companies",
      "outputs": [
        {
          "internalType": "string",
          "name": "name",
          "type": "string"
        },
        {
          "internalType": "string",
          "name": "metadataURI",
          "type": "string"
        },
        {
          "internalType": "bool",
          "name": "active",
          "type": "bool"
        }
      ],
      "stateMutability": "view",
      "type": "function"
    },
    {
      "inputs": [
        {
          "internalType": "bytes32",
          "name": "",
          "type": "bytes32"
        }
      ],
      "name": "flights",
      "outputs": [
        {
          "internalType": "address",
          "name": "company",
          "type": "address"
        },
        {
          "internalType": "uint64",
          "name": "departureTime",
          "type": "uint64"
        },
        {
          "internalType": "bool",
          "name": "exists",
          "type": "bool"
        }
      ],
      "stateMutability": "view",
      "type": "function"
    },
    {
      "inputs": [
        {
          "internalType": "string",
          "name": "flightId",
          "type": "string"
        }
      ],
      "name": "getFlightCompany",
      "outputs": [
        {
          "internalType": "address",
          "name": "",
          "type": "address"
        }
      ],
      "stateMutability": "view",
      "type": "function"
    },
    {
      "inputs": [
        {
          "internalType": "string",
          "name": "flightId",
          "type": "string"
        }
      ],
      "name": "getFlightDepartureTime",
      "outputs": [
        {
          "internalType": "uint64",
          "name": "",
          "type": "uint64"
        }
      ],
      "stateMutability": "view",
      "type": "function"
    },
    {
      "inputs": [
        {
          "internalType": "string",
          "name": "flightId",
          "type": "string"
        }
      ],
      "name": "getFlightInfo",
      "outputs": [
        {
          "components": [
            {
              "internalType": "address",
              "name": "company",
              "type": "address"
            },
            {
              "internalType": "uint64",
              "name": "departureTime",
              "type": "uint64"
            },
            {
              "internalType": "bool",
              "name": "exists",
              "type": "bool"
            }
          ],
          "internalType": "struct TicketProvider.FlightInfo",
          "name": "",
          "type": "tuple"
        }
      ],
      "stateMutability": "view",
      "type": "function"
    },
    {
      "inputs": [
        {
          "internalType": "bytes32",
          "name": "role",
          "type": "bytes32"
        }
      ],
      "name": "getRoleAdmin",
      "outputs": [
        {
          "internalType": "bytes32",
          "name": "",
          "type": "bytes32"
        }
      ],
      "stateMutability": "view",
      "type": "function"
    },
    {
      "inputs": [
        {
          "internalType": "bytes32",
          "name": "role",
          "type": "bytes32"
        },
        {
          "internalType": "address",
          "name": "account",
          "type": "address"
        }
      ],
      "name": "grantRole",
      "outputs": [],
      "stateMutability": "nonpayable",
      "type": "function"
    },
    {
      "inputs": [
        {
          "internalType": "bytes32",
          "name": "role",
          "type": "bytes32"
        },
        {
          "internalType": "address",
          "name": "account",
          "type": "address"
        }
      ],
      "name": "hasRole",
      "outputs": [
        {
          "internalType": "bool",
          "name": "",
          "type": "bool"
        }
      ],
      "stateMutability": "view",
      "type": "function"
    },
    {
      "inputs": [
        {
          "internalType": "address",
          "name": "company",
          "type": "address"
        },
        {
          "internalType": "string",
          "name": "name",
          "type": "string"
        },
        {
          "internalType": "string",
          "name": "metadataURI",
          "type": "string"
        }
      ],
      "name": "registerCompany",
      "outputs": [],
      "stateMutability": "nonpayable",
      "type": "function"
    },
    {
      "inputs": [
        {
          "internalType": "string",
          "name": "flightId",
          "type": "string"
        },
        {
          "internalType": "uint64",
          "name": "departureTime",
          "type": "uint64"
        }
      ],
      "name": "registerFlight",
      "outputs": [],
      "stateMutability": "nonpayable",
      "type": "function"
    },
    {
      "inputs": [
        {
          "internalType": "bytes32",
          "name": "role",
          "type": "bytes32"
        },
        {
          "internalType": "address",
          "name": "account",
          "type": "address"
        }
      ],
      "name": "renounceRole",
      "outputs": [],
      "stateMutability": "nonpayable",
      "type": "function"
    },
    {
      "inputs": [
        {
          "internalType": "bytes32",
          "name": "role",
          "type": "bytes32"
        },
        {
          "internalType": "address",
          "name": "account",
          "type": "address"
        }
      ],
      "name": "revokeRole",
      "outputs": [],
      "stateMutability": "nonpayable",
      "type": "function"
    },
    {
      "inputs": [
        {
          "internalType": "address",
          "name": "company",
          "type": "address"
        },
        {
          "internalType": "bool",
          "name": "active",
          "type": "bool"
        }
      ],
      "name": "setCompanyStatus",
      "outputs": [],
      "stateMutability": "nonpayable",
      "type": "function"
    },
    {
      "inputs": [
        {
          "internalType": "bytes4",
          "name": "interfaceId",
          "type": "bytes4"
        }
      ],
      "name": "supportsInterface",
      "outputs": [
        {
          "internalType": "bool",
          "name": "",
          "type": "bool"
        }
      ],
      "stateMutability": "view",
      "type": "function"
    }
  ],
  "bytecode": "0x608060405234801561001057600080fd5b5060405161145538038061145583398101604081905261002f91610129565b6001600160a01b0381166100795760405162461bcd60e51b815260206004820152600d60248201526c24b73b30b634b21030b236b4b760991b604482015260640160405180910390fd5b61008460008261008a565b50610159565b6000828152602081815260408083206001600160a01b038516845290915290205460ff16610125576000828152602081815260408083206001600160a01b03851684529091529020805460ff191660011790556100e43390565b6001600160a01b0316816001600160a01b0316837f2f8788117e7eff1d82e926ec794901d17c78024a50270940304540a733656f0d60405160405180910390a45b5050565b60006020828403121561013b57600080fd5b81516001600160a01b038116811461015257600080fd5b9392505050565b6112ed806101686000396000f3fe608060405234801561001057600080fd5b50600436106101005760003560e01c80634186c8e511610097578063a217fddf11610066578063a217fddf146102bb578063a27b7437146102c3578063b22bccc0146102ee578063d547741f1461033757600080fd5b80634186c8e51461025757806389dc8df31461026a5780638e58238c1461029557806391d14854146102a857600080fd5b8063248a9ca3116100d3578063248a9ca3146101ec5780632f2ff15d1461020f578063355e6ce81461022257806336568abe1461024457600080fd5b806301c0e4cd1461010557806301ffc9a71461011a5780631c9ee11a1461014257806320c5375e14610177575b600080fd5b610118610113366004610d18565b61034a565b005b61012d610128366004610d54565b6103b8565b60405190151581526020015b60405180910390f35b6101697f9e1688b53537f356172ce07f39e129155063957163c5f9462d4d9e55b228b06c81565b604051908152602001610139565b6101bd610185366004610d7e565b6001602052600090815260409020546001600160a01b03811690600160a01b81046001600160401b031690600160e01b900460ff1683565b604080516001600160a01b0390941684526001600160401b039092166020840152151590820152606001610139565b6101696101fa366004610d7e565b60009081526020819052604090206001015490565b61011861021d366004610d97565b6103ef565b610235610230366004610dc3565b610419565b60405161013993929190610e2e565b610118610252366004610d97565b61054e565b610118610265366004610eae565b6105d1565b61027d610278366004610f0c565b61071d565b6040516001600160401b039091168152602001610139565b6101186102a3366004610f4d565b610760565b61012d6102b6366004610d97565b6108e5565b610169600081565b6102d66102d1366004610f0c565b61090e565b6040516001600160a01b039091168152602001610139565b6103016102fc366004610f0c565b610949565b6040805182516001600160a01b031681526020808401516001600160401b03169082015291810151151590820152606001610139565b610118610345366004610d97565b6109d4565b6000610355816109f9565b6001600160a01b038316600081815260026020818152604092839020909101805460ff191686151590811790915591519182527f87d3fac69a6a125ed23cc41ddef77aea274f9605c92c1762ff15032e7846d957910160405180910390a2505050565b60006001600160e01b03198216637965db0b60e01b14806103e957506301ffc9a760e01b6001600160e01b03198316145b92915050565b60008281526020819052604090206001015461040a816109f9565b6104148383610a06565b505050565b60026020526000908152604090208054819061043490610fcd565b80601f016020809104026020016040519081016040528092919081815260200182805461046090610fcd565b80156104ad5780601f10610482576101008083540402835291602001916104ad565b820191906000526020600020905b81548152906001019060200180831161049057829003601f168201915b5050505050908060010180546104c290610fcd565b80601f01602080910402602001604051908101604052809291908181526020018280546104ee90610fcd565b801561053b5780601f106105105761010080835404028352916020019161053b565b820191906000526020600020905b81548152906001019060200180831161051e57829003601f168201915b5050506002909301549192505060ff1683565b6001600160a01b03811633146105c35760405162461bcd60e51b815260206004820152602f60248201527f416363657373436f6e74726f6c3a2063616e206f6e6c792072656e6f756e636560448201526e103937b632b9903337b91039b2b63360891b60648201526084015b60405180910390fd5b6105cd8282610a8a565b5050565b7f9e1688b53537f356172ce07f39e129155063957163c5f9462d4d9e55b228b06c6105fb816109f9565b600083900361061d5760405163b4fa3fb360e01b815260040160405180910390fd5b816001600160401b03166000036106475760405163b4fa3fb360e01b815260040160405180910390fd5b60008484604051610659929190611007565b60408051918290038220606083018252338084526001600160401b038088166020808701918252600187870181815260008781529190925286902096518754925191511515600160e01b0260ff60e01b1992909416600160a01b026001600160e01b03199093166001600160a01b039190911617919091171617909355905190925082907f33e7cc9cf391eb62744d4cb9400d076d0f223d02b787fc435049305bd46abe509061070e90899089908990611040565b60405180910390a35050505050565b6000808383604051610730929190611007565b6040805191829003909120600090815260016020522054600160a01b90046001600160401b031691505092915050565b600061076b816109f9565b6001600160a01b0386166107925760405163b4fa3fb360e01b815260040160405180910390fd5b604051806060016040528086868080601f016020809104026020016040519081016040528093929190818152602001838380828437600092019190915250505090825250604080516020601f870181900481028201810190925285815291810191908690869081908401838280828437600092018290525093855250506001602093840152506001600160a01b03891681526002909152604090208151819061083b90826110d1565b506020820151600182019061085090826110d1565b50604091909101516002909101805460ff19169115159190911790556108967f9e1688b53537f356172ce07f39e129155063957163c5f9462d4d9e55b228b06c87610a06565b856001600160a01b03167f3af6d3f829e85b5eecb929326b5afb8f0f12e49292416b48f4d1784038b740c2868686866040516108d59493929190611190565b60405180910390a2505050505050565b6000918252602082815260408084206001600160a01b0393909316845291905290205460ff1690565b6000808383604051610921929190611007565b60408051918290039091206000908152600160205220546001600160a01b0316949350505050565b604080516060810182526000808252602082018190529181019190915260008383604051610978929190611007565b6040805191829003822060009081526001602090815290829020606084018352546001600160a01b0381168452600160a01b81046001600160401b031691840191909152600160e01b900460ff16151590820152949350505050565b6000828152602081905260409020600101546109ef816109f9565b6104148383610a8a565b610a038133610aef565b50565b610a1082826108e5565b6105cd576000828152602081815260408083206001600160a01b03851684529091529020805460ff19166001179055610a463390565b6001600160a01b0316816001600160a01b0316837f2f8788117e7eff1d82e926ec794901d17c78024a50270940304540a733656f0d60405160405180910390a45050565b610a9482826108e5565b156105cd576000828152602081815260408083206001600160a01b0385168085529252808320805460ff1916905551339285917ff6391f5c32d9c69d2a47ea670b442974b53935d1edc7fd64eb21e047a839171b9190a45050565b610af982826108e5565b6105cd57610b0681610b48565b610b11836020610b5a565b604051602001610b229291906111c2565b60408051601f198184030181529082905262461bcd60e51b82526105ba91600401611237565b60606103e96001600160a01b03831660145b60606000610b69836002611260565b610b74906002611277565b6001600160401b03811115610b8b57610b8b61106d565b6040519080825280601f01601f191660200182016040528015610bb5576020820181803683370190505b509050600360fc1b81600081518110610bd057610bd061128a565b60200101906001600160f81b031916908160001a905350600f60fb1b81600181518110610bff57610bff61128a565b60200101906001600160f81b031916908160001a9053506000610c23846002611260565b610c2e906001611277565b90505b6001811115610ca6576f181899199a1a9b1b9c1cb0b131b232b360811b85600f1660108110610c6257610c6261128a565b1a60f81b828281518110610c7857610c7861128a565b60200101906001600160f81b031916908160001a90535060049490941c93610c9f816112a0565b9050610c31565b508315610cf55760405162461bcd60e51b815260206004820181905260248201527f537472696e67733a20686578206c656e67746820696e73756666696369656e7460448201526064016105ba565b9392505050565b80356001600160a01b0381168114610d1357600080fd5b919050565b60008060408385031215610d2b57600080fd5b610d3483610cfc565b915060208301358015158114610d4957600080fd5b809150509250929050565b600060208284031215610d6657600080fd5b81356001600160e01b031981168114610cf557600080fd5b600060208284031215610d9057600080fd5b5035919050565b60008060408385031215610daa57600080fd5b82359150610dba60208401610cfc565b90509250929050565b600060208284031215610dd557600080fd5b610cf582610cfc565b60005b83811015610df9578181015183820152602001610de1565b50506000910152565b60008151808452610e1a816020860160208601610dde565b601f01601f19169290920160200192915050565b606081526000610e416060830186610e02565b8281036020840152610e538186610e02565b9150508215156040830152949350505050565b60008083601f840112610e7857600080fd5b5081356001600160401b03811115610e8f57600080fd5b602083019150836020828501011115610ea757600080fd5b9250929050565b600080600060408486031215610ec357600080fd5b83356001600160401b0380821115610eda57600080fd5b610ee687838801610e66565b9095509350602086013591508082168214610f0057600080fd5b50809150509250925092565b60008060208385031215610f1f57600080fd5b82356001600160401b03811115610f3557600080fd5b610f4185828601610e66565b90969095509350505050565b600080600080600060608688031215610f6557600080fd5b610f6e86610cfc565b945060208601356001600160401b0380821115610f8a57600080fd5b610f9689838a01610e66565b90965094506040880135915080821115610faf57600080fd5b50610fbc88828901610e66565b969995985093965092949392505050565b600181811c90821680610fe157607f821691505b60208210810361100157634e487b7160e01b600052602260045260246000fd5b50919050565b8183823760009101908152919050565b81835281816020850137506000828201602090810191909152601f909101601f19169091010190565b604081526000611054604083018587611017565b90506001600160401b0383166020830152949350505050565b634e487b7160e01b600052604160045260246000fd5b601f82111561041457600081815260208120601f850160051c810160208610156110aa5750805b601f850160051c820191505b818110156110c9578281556001016110b6565b505050505050565b81516001600160401b038111156110ea576110ea61106d565b6110fe816110f88454610fcd565b84611083565b602080601f831160018114611133576000841561111b5750858301515b600019600386901b1c1916600185901b1785556110c9565b600085815260208120601f198616915b8281101561116257888601518255948401946001909101908401611143565b50858210156111805787850151600019600388901b60f8161c191681555b5050505050600190811b01905550565b6040815260006111a4604083018688611017565b82810360208401526111b7818587611017565b979650505050505050565b7f416363657373436f6e74726f6c3a206163636f756e74200000000000000000008152600083516111fa816017850160208801610dde565b7001034b99036b4b9b9b4b733903937b6329607d1b601791840191820152835161122b816028840160208801610dde565b01602801949350505050565b602081526000610cf56020830184610e02565b634e487b7160e01b600052601160045260246000fd5b80820281158282048414176103e9576103e961124a565b808201808211156103e9576103e961124a565b634e487b7160e01b600052603260045260246000fd5b6000816112af576112af61124a565b50600019019056fea264697066735822122071f0722cc093d480340a2821c29ed0a36d3fcbfe7215e9cda26602be8d898c2d64736f6c63430008140033",
  "linkReferences": {},
  "deployedLinkReferences": {}
}