{
  "_format": "hh-sol-artifact-1",
  "contractName": "TicketMarketplace",
  "sourceName": "contracts/TicketMarketplace.sol",
  "abi": [
    {
      "inputs": [
        {
          "internalType": "contract IERC20Decimals",
          "name": "_token",
          "type": "address"
        },
        {
          "internalType": "address",
          "name": "admin",
          "type": "address"
        },
        {
          "internalType": "address",
          "name": "_treasury",
          "type": "address"
        },
        {
          "internalType": "contract TicketProvider",
          "name": "_ticketProvider",
          "type": "address"
        }
      ],
      "stateMutability": "nonpayable",
      "type": "constructor"
    },
    {
      "inputs": [],
      "name": "AlreadyRefunded",
      "type": "error"
    },
    {
      "inputs": [],
      "name": "NotOwner",
      "type": "error"
    },
    {
      "anonymous": false,
      "inputs": [
        {
          "indexed": false,
          "internalType": "address",
          "name": "account",
          "type": "address"
        }
      ],
      "name": "Paused",
      "type": "event"
    },
    {
      "anonymous": false,
      "inputs": [
        {
          "indexed": true,
          "internalType": "bytes32",
          "name": "role",
          "type": "bytes32"
        },
        {
          "indexed": true,
          "internalType": "bytes32",
          "name": "previousAdminRole",
          "type": "bytes32"
        },
        {
          "indexed": true,
          "internalType": "bytes32",
          "name": "newAdminRole",
          "type": "bytes32"
        }
      ],
      "name": "RoleAdminChanged",
      "type": "event"
    },
    {
      "anonymous": false,
      "inputs": [
        {
          "indexed": true,
          "internalType": "bytes32",
          "name": "role",
          "type": "bytes32"
        },
        {
          "indexed": true,
          "internalType": "address",
          "name": "account",
          "type": "address"
        },
        {
          "indexed": true,
          "internalType": "address",
          "name": "sender",
          "type": "address"
        }
      ],
      "name": "RoleGranted",
      "type": "event"
    },
    {
      "anonymous": false,
      "inputs": [
        {
          "indexed": true,
          "internalType": "bytes32",
          "name": "role",
          "type": "bytes32"
        },
        {
          "indexed": true,
          "internalType": "address",
          "name": "account",
          "type": "address"
        },
        {
          "indexed": true,
          "internalType": "address",
          "name": "sender",
          "type": "address"
        }
      ],
      "name": "RoleRevoked",
      "type": "event"
    },
    {
      "anonymous": false,
      "inputs": [
        {
          "indexed": true,
          "internalType": "uint256",
          "name": "ticketId",
          "type": "uint256"
        },
        {
          "indexed": true,
          "internalType": "address",
          "name": "user",
          "type": "address"
        },
        {
          "indexed": false,
          "internalType": "string",
          "name": "flightId",
          "type": "string"
        },
        {
          "indexed": false,
          "internalType": "uint256",
          "name": "price",
          "type": "uint256"
        }
      ],
      "name": "TicketPurchased",
      "type": "event"
    },
    {
      "anonymous": false,
      "inputs": [
        {
          "indexed": true,
          "internalType": "uint256",
          "name": "ticketId",
          "type": "uint256"
        },
        {
          "indexed": true,
          "internalType": "address",
          "name": "user",
          "type": "address"
        }
      ],
      "name": "TicketRefundRequested",
      "type": "event"
    },
    {
      "anonymous": false,
      "inputs": [
        {
          "indexed": true,
          "internalType": "uint256",
          "name": "ticketId",
          "type": "uint256"
        },
        {
          "indexed": true,
          "internalType": "address",
          "name": "user",
          "type": "address"
        },
        {
          "indexed": false,
          "internalType": "uint256",
          "name": "amount",
          "type": "uint256"
        }
      ],
      "name": "TicketRefunded",
      "type": "event"
    },
    {
      "anonymous": false,
      "inputs": [
        {
          "indexed": false,
          "internalType": "address",
          "name": "account",
          "type": "address"
        }
      ],
      "name": "Unpaused",
      "type": "event"
    },
    {
      "inputs": [],
      "name": "DEFAULT_ADMIN_ROLE",
      "outputs": [
        {
          "internalType": "bytes32",
          "name": "",
          "type": "bytes32"
        }
      ],
      "stateMutability": "view",
      "type": "function"
    },
    {
      "inputs": [],
      "name": "TREASURY_ROLE",
      "outputs": [
        {
          "internalType": "bytes32",
          "name": "",
          "type": "bytes32"
        }
      ],
      "stateMutability": "view",
      "type": "function"
    },
    {
      "inputs": [
        {
          "internalType": "uint256",
          "name": "ticketId",
          "type": "uint256"
        },
        {
          "internalType": "uint256",
          "name": "amount",
          "type": "uint256"
        }
      ],
      "name": "approveRefund",
      "outputs": [],
      "stateMutability": "nonpayable",
      "type": "function"
    },
    {
      "inputs": [
        {
          "internalType": "string",
          "name": "flightId",
          "type": "string"
        },
        {
          "internalType": "uint256",
          "name": "price",
          "type": "uint256"
        }
      ],
      "name": "buyTicket",
      "outputs": [],
      "stateMutability": "nonpayable",
      "type": "function"
    },
    {
      "inputs": [
        {
          "internalType": "bytes32",
          "name": "role",
          "type": "bytes32"
        }
      ],
      "name": "getRoleAdmin",
      "outputs": [
        {
          "internalType": "bytes32",
          "name": "",
          "type": "bytes32"
        }
      ],
      "stateMutability": "view",
      "type": "function"
    },
    {
      "inputs": [
        {
          "internalType": "bytes32",
          "name": "role",
          "type": "bytes32"
        },
        {
          "internalType": "address",
          "name": "account",
          "type": "address"
        }
      ],
      "name": "grantRole",
      "outputs": [],
      "stateMutability": "nonpayable",
      "type": "function"
    },
    {
      "inputs": [
        {
          "internalType": "bytes32",
          "name": "role",
          "type": "bytes32"
        },
        {
          "internalType": "address",
          "name": "account",
          "type": "address"
        }
      ],
      "name": "hasRole",
      "outputs": [
        {
          "internalType": "bool",
          "name": "",
          "type": "bool"
        }
      ],
      "stateMutability": "view",
      "type": "function"
    },
    {
      "inputs": [],
      "name": "nextTicketId",
      "outputs": [
        {
          "internalType": "uint256",
          "name": "",
          "type": "uint256"
        }
      ],
      "stateMutability": "view",
      "type": "function"
    },
    {
      "inputs": [],
      "name": "pause",
      "outputs": [],
      "stateMutability": "nonpayable",
      "type": "function"
    },
    {
      "inputs": [],
      "name": "paused",
      "outputs": [
        {
          "internalType": "bool",
          "name": "",
          "type": "bool"
        }
      ],
      "stateMutability": "view",
      "type": "function"
    },
    {
      "inputs": [
        {
          "internalType": "bytes32",
          "name": "role",
          "type": "bytes32"
        },
        {
          "internalType": "address",
          "name": "account",
          "type": "address"
        }
      ],
      "name": "renounceRole",
      "outputs": [],
      "stateMutability": "nonpayable",
      "type": "function"
    },
    {
      "inputs": [
        {
          "internalType": "uint256",
          "name": "ticketId",
          "type": "uint256"
        }
      ],
      "name": "requestRefund",
      "outputs": [],
      "stateMutability": "nonpayable",
      "type": "function"
    },
    {
      "inputs": [
        {
          "internalType": "bytes32",
          "name": "role",
          "type": "bytes32"
        },
        {
          "internalType": "address",
          "name": "account",
          "type": "address"
        }
      ],
      "name": "revokeRole",
      "outputs": [],
      "stateMutability": "nonpayable",
      "type": "function"
    },
    {
      "inputs": [
        {
          "internalType": "bytes4",
          "name": "interfaceId",
          "type": "bytes4"
        }
      ],
      "name": "supportsInterface",
      "outputs": [
        {
          "internalType": "bool",
          "name": "",
          "type": "bool"
        }
      ],
      "stateMutability": "view",
      "type": "function"
    },
    {
      "inputs": [],
      "name": "ticketProvider",
      "outputs": [
        {
          "internalType": "contract TicketProvider",
          "name": "",
          "type": "address"
        }
      ],
      "stateMutability": "view",
      "type": "function"
    },
    {
      "inputs": [
        {
          "internalType": "uint256",
          "name": "",
          "type": "uint256"
        }
      ],
      "name": "tickets",
      "outputs": [
        {
          "internalType": "address",
          "name": "owner",
          "type": "address"
        },
        {
          "internalType": "string",
          "name": "flightId",
          "type": "string"
        },
        {
          "internalType": "uint256",
          "name": "price",
          "type": "uint256"
        },
        {
          "internalType": "bool",
          "name": "refunded",
          "type": "bool"
        }
      ],
      "stateMutability": "view",
      "type": "function"
    },
    {
      "inputs": [],
      "name": "token",
      "outputs": [
        {
          "internalType": "contract IERC20Decimals",
          "name": "",
          "type": "address"
        }
      ],
      "stateMutability": "view",
      "type": "function"
    },
    {
      "inputs": [],
      "name": "treasury",
      "outputs": [
        {
          "internalType": "address",
          "name": "",
          "type": "address"
        }
      ],
      "stateMutability": "view",
      "type": "function"
    },
    {
      "inputs": [],
      "name": "unpause",
      "outputs": [],
      "stateMutability": "nonpayable",
      "type": "function"
    }
  ],
  "bytecode": "0x60c060405260016003553480156200001657600080fd5b50604051620015d2380380620015d283398101604081905262000039916200014e565b6000805460ff191681556001600160a01b03858116608052600280546001600160a01b031916858316179055821660a052620000769084620000ac565b620000a27fe1dcbdb91df27212a29bc27177c840cf2f819ecf2187432e1fac86c2dd5dfca983620000ac565b50505050620001b6565b60008281526001602090815260408083206001600160a01b038516845290915290205460ff16620001315760008281526001602081815260408084206001600160a01b0386168086529252808420805460ff19169093179092559051339285917f2f8788117e7eff1d82e926ec794901d17c78024a50270940304540a733656f0d9190a45b5050565b6001600160a01b03811681146200014b57600080fd5b50565b600080600080608085870312156200016557600080fd5b8451620001728162000135565b6020860151909450620001858162000135565b6040860151909350620001988162000135565b6060860151909250620001ab8162000135565b939692955090935050565b60805160a0516113e1620001f160003960008181610153015261054a0152600081816102d401528181610710015261094f01526113e16000f3fe608060405234801561001057600080fd5b50600436106101215760003560e01c806361d027b3116100ad578063a4b2409e11610071578063a4b2409e1461026f578063bbf0764e14610282578063d11a57ec14610295578063d547741f146102bc578063fc0c546a146102cf57600080fd5b806361d027b3146102265780638456cb591461023957806391d1485414610241578063a217fddf14610254578063a28f161c1461025c57600080fd5b806336568abe116100f457806336568abe146101d45780633f4ba83a146101e757806350b44712146101ef5780635c975abb146102125780636031a52f1461021d57600080fd5b806301ffc9a7146101265780631e4e938a1461014e578063248a9ca31461018d5780632f2ff15d146101bf575b600080fd5b610139610134366004610e7c565b6102f6565b60405190151581526020015b60405180910390f35b6101757f000000000000000000000000000000000000000000000000000000000000000081565b6040516001600160a01b039091168152602001610145565b6101b161019b366004610ea6565b6000908152600160208190526040909120015490565b604051908152602001610145565b6101d26101cd366004610ed4565b61032d565b005b6101d26101e2366004610ed4565b610358565b6101d26103db565b6102026101fd366004610ea6565b6103f1565b6040516101459493929190610f54565b60005460ff16610139565b6101b160035481565b600254610175906001600160a01b031681565b6101d26104b0565b61013961024f366004610ed4565b6104c3565b6101b1600081565b6101d261026a366004610f90565b6104ee565b6101d261027d366004610ea6565b610809565b6101d2610290366004611008565b610898565b6101b17fe1dcbdb91df27212a29bc27177c840cf2f819ecf2187432e1fac86c2dd5dfca981565b6101d26102ca366004610ed4565b610a4c565b6101757f000000000000000000000000000000000000000000000000000000000000000081565b60006001600160e01b03198216637965db0b60e01b148061032757506301ffc9a760e01b6001600160e01b03198316145b92915050565b6000828152600160208190526040909120015461034981610a72565b6103538383610a7c565b505050565b6001600160a01b03811633146103cd5760405162461bcd60e51b815260206004820152602f60248201527f416363657373436f6e74726f6c3a2063616e206f6e6c792072656e6f756e636560448201526e103937b632b9903337b91039b2b63360891b60648201526084015b60405180910390fd5b6103d78282610ae7565b5050565b60006103e681610a72565b6103ee610b4e565b50565b600460205260009081526040902080546001820180546001600160a01b03909216929161041d9061102a565b80601f01602080910402602001604051908101604052809291908181526020018280546104499061102a565b80156104965780601f1061046b57610100808354040283529160200191610496565b820191906000526020600020905b81548152906001019060200180831161047957829003601f168201915b50505050600283015460039093015491929160ff16905084565b60006104bb81610a72565b6103ee610ba0565b60009182526001602090815260408084206001600160a01b0393909316845291905290205460ff1690565b6104f6610bdd565b600081116105305760405162461bcd60e51b8152602060048201526007602482015266070726963653d360cc1b60448201526064016103c4565b6040516302c8af3360e61b81526000906001600160a01b037f0000000000000000000000000000000000000000000000000000000000000000169063b22bccc090610581908790879060040161108d565b606060405180830381865afa15801561059e573d6000803e3d6000fd5b505050506040513d601f19601f820116820180604052508101906105c291906110d4565b905080604001516106065760405162461bcd60e51b815260206004820152600e60248201526d1d5b9adb9bdddb88199b1a59da1d60921b60448201526064016103c4565b600380546000918261061783611166565b9190505590506040518060800160405280336001600160a01b0316815260200186868080601f01602080910402602001604051908101604052809392919081815260200183838082843760009201829052509385525050506020808301879052604092830182905284825260048152919020825181546001600160a01b0319166001600160a01b039091161781559082015160018201906106b890826111cd565b506040828101516002838101919091556060909301516003909201805460ff191692151592909217909155905490516323b872dd60e01b81523360048201526001600160a01b039182166024820152604481018590527f0000000000000000000000000000000000000000000000000000000000000000909116906323b872dd906064016020604051808303816000875af115801561075b573d6000803e3d6000fd5b505050506040513d601f19601f8201168201806040525081019061077f919061128d565b6107bc5760405162461bcd60e51b815260206004820152600e60248201526d1c185e5b595b9d0819985a5b195960921b60448201526064016103c4565b336001600160a01b0316817fedff126a959c32951b576fa2ce20c377c50349226898a5ab7ded1ae246a09c178787876040516107fa939291906112a8565b60405180910390a35050505050565b600081815260046020526040902080546001600160a01b03163314610841576040516330cd747160e01b815260040160405180910390fd5b600381015460ff16156108675760405163542f378d60e11b815260040160405180910390fd5b604051339083907f8a3aa5c3a4693f12e3b9f1170ea9c48977f43fe24e3623237f26d3cd38ffcd3290600090a35050565b7fe1dcbdb91df27212a29bc27177c840cf2f819ecf2187432e1fac86c2dd5dfca96108c281610a72565b6000838152600460205260409020600381015460ff16156109185760405162461bcd60e51b815260206004820152601060248201526f185b1c9958591e481c99599d5b99195960821b60448201526064016103c4565b60038101805460ff19166001179055805460405163a9059cbb60e01b81526001600160a01b039182166004820152602481018590527f00000000000000000000000000000000000000000000000000000000000000009091169063a9059cbb906044016020604051808303816000875af115801561099a573d6000803e3d6000fd5b505050506040513d601f19601f820116820180604052508101906109be919061128d565b610a035760405162461bcd60e51b81526020600482015260166024820152751c99599d5b99081d1c985b9cd9995c8819985a5b195960521b60448201526064016103c4565b80546040518481526001600160a01b039091169085907f8c8fd3da31954f4657d981e2a89ea3421ef5d7bfa0998012eaff5f24a61a867a9060200160405180910390a350505050565b60008281526001602081905260409091200154610a6881610a72565b6103538383610ae7565b6103ee8133610c25565b610a8682826104c3565b6103d75760008281526001602081815260408084206001600160a01b0386168086529252808420805460ff19169093179092559051339285917f2f8788117e7eff1d82e926ec794901d17c78024a50270940304540a733656f0d9190a45050565b610af182826104c3565b156103d75760008281526001602090815260408083206001600160a01b0385168085529252808320805460ff1916905551339285917ff6391f5c32d9c69d2a47ea670b442974b53935d1edc7fd64eb21e047a839171b9190a45050565b610b56610c7e565b6000805460ff191690557f5db9ee0a495bf2e6ff9c91a7834c1ba4fdd244a5e8aa4e537bd38aeae4b073aa335b6040516001600160a01b03909116815260200160405180910390a1565b610ba8610bdd565b6000805460ff191660011790557f62e78cea01bee320cd4e420270b5ea74000d11b0c9f74754ebdbfc544b05a258610b833390565b60005460ff1615610c235760405162461bcd60e51b815260206004820152601060248201526f14185d5cd8589b194e881c185d5cd95960821b60448201526064016103c4565b565b610c2f82826104c3565b6103d757610c3c81610cc7565b610c47836020610cd9565b604051602001610c589291906112cc565b60408051601f198184030181529082905262461bcd60e51b82526103c491600401611341565b60005460ff16610c235760405162461bcd60e51b815260206004820152601460248201527314185d5cd8589b194e881b9bdd081c185d5cd95960621b60448201526064016103c4565b60606103276001600160a01b03831660145b60606000610ce8836002611354565b610cf390600261136b565b67ffffffffffffffff811115610d0b57610d0b6110a9565b6040519080825280601f01601f191660200182016040528015610d35576020820181803683370190505b509050600360fc1b81600081518110610d5057610d5061137e565b60200101906001600160f81b031916908160001a905350600f60fb1b81600181518110610d7f57610d7f61137e565b60200101906001600160f81b031916908160001a9053506000610da3846002611354565b610dae90600161136b565b90505b6001811115610e26576f181899199a1a9b1b9c1cb0b131b232b360811b85600f1660108110610de257610de261137e565b1a60f81b828281518110610df857610df861137e565b60200101906001600160f81b031916908160001a90535060049490941c93610e1f81611394565b9050610db1565b508315610e755760405162461bcd60e51b815260206004820181905260248201527f537472696e67733a20686578206c656e67746820696e73756666696369656e7460448201526064016103c4565b9392505050565b600060208284031215610e8e57600080fd5b81356001600160e01b031981168114610e7557600080fd5b600060208284031215610eb857600080fd5b5035919050565b6001600160a01b03811681146103ee57600080fd5b60008060408385031215610ee757600080fd5b823591506020830135610ef981610ebf565b809150509250929050565b60005b83811015610f1f578181015183820152602001610f07565b50506000910152565b60008151808452610f40816020860160208601610f04565b601f01601f19169290920160200192915050565b6001600160a01b0385168152608060208201819052600090610f7890830186610f28565b60408301949094525090151560609091015292915050565b600080600060408486031215610fa557600080fd5b833567ffffffffffffffff80821115610fbd57600080fd5b818601915086601f830112610fd157600080fd5b813581811115610fe057600080fd5b876020828501011115610ff257600080fd5b6020928301989097509590910135949350505050565b6000806040838503121561101b57600080fd5b50508035926020909101359150565b600181811c9082168061103e57607f821691505b60208210810361105e57634e487b7160e01b600052602260045260246000fd5b50919050565b81835281816020850137506000828201602090810191909152601f909101601f19169091010190565b6020815260006110a1602083018486611064565b949350505050565b634e487b7160e01b600052604160045260246000fd5b805180151581146110cf57600080fd5b919050565b6000606082840312156110e657600080fd5b6040516060810167ffffffffffffffff828210818311171561110a5761110a6110a9565b816040528451915061111b82610ebf565b908252602084015190808216821461113257600080fd5b506020820152611144604084016110bf565b60408201529392505050565b634e487b7160e01b600052601160045260246000fd5b60006001820161117857611178611150565b5060010190565b601f82111561035357600081815260208120601f850160051c810160208610156111a65750805b601f850160051c820191505b818110156111c5578281556001016111b2565b505050505050565b815167ffffffffffffffff8111156111e7576111e76110a9565b6111fb816111f5845461102a565b8461117f565b602080601f83116001811461123057600084156112185750858301515b600019600386901b1c1916600185901b1785556111c5565b600085815260208120601f198616915b8281101561125f57888601518255948401946001909101908401611240565b508582101561127d5787850151600019600388901b60f8161c191681555b5050505050600190811b01905550565b60006020828403121561129f57600080fd5b610e75826110bf565b6040815260006112bc604083018587611064565b9050826020830152949350505050565b7f416363657373436f6e74726f6c3a206163636f756e7420000000000000000000815260008351611304816017850160208801610f04565b7001034b99036b4b9b9b4b733903937b6329607d1b6017918401918201528351611335816028840160208801610f04565b01602801949350505050565b602081526000610e756020830184610f28565b808202811582820484141761032757610327611150565b8082018082111561032757610327611150565b634e487b7160e01b600052603260045260246000fd5b6000816113a3576113a3611150565b50600019019056fea2646970667358221220077f2e0d87370909c879ab9d203c13f6f942ff32f0b9a7a7130e5d663864c51164736f6c63430008140033",
  "linkReferences": {},
  "deployedLinkReferences": {}
}