{
  "_format": "hh-sol-artifact-1",
  "contractName": "UserDelayInsurance",
  "sourceName": "contracts/UserDelayInsurance.sol",
  "abi": [
    {
      "inputs": [
        {
          "internalType": "contract IERC20Decimals",
          "name": "_token",
          "type": "address"
        },
        {
          "internalType": "address",
          "name": "admin",
          "type": "address"
        },
        {
          "internalType": "contract TicketProvider",
          "name": "_ticketProvider",
          "type": "address"
        },
        {
          "internalType": "contract CompanyFunding",
          "name": "_companyFunding",
          "type": "address"
        },
        {
          "internalType": "address",
          "name": "oracle",
          "type": "address"
        }
      ],
      "stateMutability": "nonpayable",
      "type": "constructor"
    },
    {
      "inputs": [],
      "name": "AlreadyFinalized",
      "type": "error"
    },
    {
      "inputs": [],
      "name": "InvalidFlight",
      "type": "error"
    },
    {
      "inputs": [],
      "name": "InvalidPolicy",
      "type": "error"
    },
    {
      "inputs": [],
      "name": "NotOracle",
      "type": "error"
    },
    {
      "anonymous": false,
      "inputs": [
        {
          "indexed": false,
          "internalType": "address",
          "name": "account",
          "type": "address"
        }
      ],
      "name": "Paused",
      "type": "event"
    },
    {
      "anonymous": false,
      "inputs": [
        {
          "indexed": true,
          "internalType": "uint256",
          "name": "policyId",
          "type": "uint256"
        },
        {
          "indexed": true,
          "internalType": "address",
          "name": "insured",
          "type": "address"
        },
        {
          "indexed": false,
          "internalType": "string",
          "name": "flightId",
          "type": "string"
        },
        {
          "indexed": false,
          "internalType": "uint256",
          "name": "ticketId",
          "type": "uint256"
        },
        {
          "indexed": false,
          "internalType": "uint256",
          "name": "bookingId",
          "type": "uint256"
        },
        {
          "indexed": false,
          "internalType": "uint256",
          "name": "premium",
          "type": "uint256"
        },
        {
          "indexed": false,
          "internalType": "uint256",
          "name": "payoutAmount",
          "type": "uint256"
        },
        {
          "indexed": false,
          "internalType": "uint64",
          "name": "delayThreshold",
          "type": "uint64"
        },
        {
          "indexed": false,
          "internalType": "uint64",
          "name": "departureTime",
          "type": "uint64"
        }
      ],
      "name": "PolicyCreated",
      "type": "event"
    },
    {
      "anonymous": false,
      "inputs": [
        {
          "indexed": true,
          "internalType": "uint256",
          "name": "policyId",
          "type": "uint256"
        },
        {
          "indexed": true,
          "internalType": "address",
          "name": "insured",
          "type": "address"
        },
        {
          "indexed": false,
          "internalType": "uint256",
          "name": "amount",
          "type": "uint256"
        }
      ],
      "name": "PolicyRefunded",
      "type": "event"
    },
    {
      "anonymous": false,
      "inputs": [
        {
          "indexed": true,
          "internalType": "uint256",
          "name": "policyId",
          "type": "uint256"
        },
        {
          "indexed": false,
          "internalType": "enum UserDelayInsurance.PolicyStatus",
          "name": "status",
          "type": "uint8"
        },
        {
          "indexed": false,
          "internalType": "uint64",
          "name": "actualDelayMinutes",
          "type": "uint64"
        },
        {
          "indexed": false,
          "internalType": "uint256",
          "name": "payoutAmount",
          "type": "uint256"
        }
      ],
      "name": "PolicySettled",
      "type": "event"
    },
    {
      "anonymous": false,
      "inputs": [
        {
          "indexed": true,
          "internalType": "bytes32",
          "name": "role",
          "type": "bytes32"
        },
        {
          "indexed": true,
          "internalType": "bytes32",
          "name": "previousAdminRole",
          "type": "bytes32"
        },
        {
          "indexed": true,
          "internalType": "bytes32",
          "name": "newAdminRole",
          "type": "bytes32"
        }
      ],
      "name": "RoleAdminChanged",
      "type": "event"
    },
    {
      "anonymous": false,
      "inputs": [
        {
          "indexed": true,
          "internalType": "bytes32",
          "name": "role",
          "type": "bytes32"
        },
        {
          "indexed": true,
          "internalType": "address",
          "name": "account",
          "type": "address"
        },
        {
          "indexed": true,
          "internalType": "address",
          "name": "sender",
          "type": "address"
        }
      ],
      "name": "RoleGranted",
      "type": "event"
    },
    {
      "anonymous": false,
      "inputs": [
        {
          "indexed": true,
          "internalType": "bytes32",
          "name": "role",
          "type": "bytes32"
        },
        {
          "indexed": true,
          "internalType": "address",
          "name": "account",
          "type": "address"
        },
        {
          "indexed": true,
          "internalType": "address",
          "name": "sender",
          "type": "address"
        }
      ],
      "name": "RoleRevoked",
      "type": "event"
    },
    {
      "anonymous": false,
      "inputs": [
        {
          "indexed": false,
          "internalType": "address",
          "name": "account",
          "type": "address"
        }
      ],
      "name": "Unpaused",
      "type": "event"
    },
    {
      "inputs": [],
      "name": "DEFAULT_ADMIN_ROLE",
      "outputs": [
        {
          "internalType": "bytes32",
          "name": "",
          "type": "bytes32"
        }
      ],
      "stateMutability": "view",
      "type": "function"
    },
    {
      "inputs": [],
      "name": "ORACLE_ROLE",
      "outputs": [
        {
          "internalType": "bytes32",
          "name": "",
          "type": "bytes32"
        }
      ],
      "stateMutability": "view",
      "type": "function"
    },
    {
      "inputs": [
        {
          "internalType": "string",
          "name": "flightId",
          "type": "string"
        },
        {
          "internalType": "uint256",
          "name": "ticketId",
          "type": "uint256"
        },
        {
          "internalType": "uint256",
          "name": "bookingId",
          "type": "uint256"
        },
        {
          "internalType": "uint64",
          "name": "delayThresholdMinutes",
          "type": "uint64"
        },
        {
          "internalType": "uint256",
          "name": "premiumAmount",
          "type": "uint256"
        },
        {
          "internalType": "uint256",
          "name": "payoutAmount",
          "type": "uint256"
        }
      ],
      "name": "buyPolicy",
      "outputs": [],
      "stateMutability": "nonpayable",
      "type": "function"
    },
    {
      "inputs": [],
      "name": "companyFunding",
      "outputs": [
        {
          "internalType": "contract CompanyFunding",
          "name": "",
          "type": "address"
        }
      ],
      "stateMutability": "view",
      "type": "function"
    },
    {
      "inputs": [
        {
          "internalType": "bytes32",
          "name": "role",
          "type": "bytes32"
        }
      ],
      "name": "getRoleAdmin",
      "outputs": [
        {
          "internalType": "bytes32",
          "name": "",
          "type": "bytes32"
        }
      ],
      "stateMutability": "view",
      "type": "function"
    },
    {
      "inputs": [
        {
          "internalType": "bytes32",
          "name": "role",
          "type": "bytes32"
        },
        {
          "internalType": "address",
          "name": "account",
          "type": "address"
        }
      ],
      "name": "grantRole",
      "outputs": [],
      "stateMutability": "nonpayable",
      "type": "function"
    },
    {
      "inputs": [
        {
          "internalType": "bytes32",
          "name": "role",
          "type": "bytes32"
        },
        {
          "internalType": "address",
          "name": "account",
          "type": "address"
        }
      ],
      "name": "hasRole",
      "outputs": [
        {
          "internalType": "bool",
          "name": "",
          "type": "bool"
        }
      ],
      "stateMutability": "view",
      "type": "function"
    },
    {
      "inputs": [],
      "name": "nextPolicyId",
      "outputs": [
        {
          "internalType": "uint256",
          "name": "",
          "type": "uint256"
        }
      ],
      "stateMutability": "view",
      "type": "function"
    },
    {
      "inputs": [],
      "name": "pause",
      "outputs": [],
      "stateMutability": "nonpayable",
      "type": "function"
    },
    {
      "inputs": [],
      "name": "paused",
      "outputs": [
        {
          "internalType": "bool",
          "name": "",
          "type": "bool"
        }
      ],
      "stateMutability": "view",
      "type": "function"
    },
    {
      "inputs": [
        {
          "internalType": "uint256",
          "name": "",
          "type": "uint256"
        }
      ],
      "name": "policies",
      "outputs": [
        {
          "internalType": "address",
          "name": "insured",
          "type": "address"
        },
        {
          "internalType": "string",
          "name": "flightId",
          "type": "string"
        },
        {
          "internalType": "uint256",
          "name": "ticketId",
          "type": "uint256"
        },
        {
          "internalType": "uint256",
          "name": "bookingId",
          "type": "uint256"
        },
        {
          "internalType": "uint64",
          "name": "departureTime",
          "type": "uint64"
        },
        {
          "internalType": "uint64",
          "name": "createdAt",
          "type": "uint64"
        },
        {
          "internalType": "uint64",
          "name": "delayThreshold",
          "type": "uint64"
        },
        {
          "internalType": "uint256",
          "name": "premium",
          "type": "uint256"
        },
        {
          "internalType": "uint256",
          "name": "payoutAmount",
          "type": "uint256"
        },
        {
          "internalType": "enum UserDelayInsurance.PolicyStatus",
          "name": "status",
          "type": "uint8"
        }
      ],
      "stateMutability": "view",
      "type": "function"
    },
    {
      "inputs": [
        {
          "internalType": "uint256",
          "name": "policyId",
          "type": "uint256"
        },
        {
          "internalType": "uint256",
          "name": "amount",
          "type": "uint256"
        }
      ],
      "name": "refundPolicy",
      "outputs": [],
      "stateMutability": "nonpayable",
      "type": "function"
    },
    {
      "inputs": [
        {
          "internalType": "bytes32",
          "name": "role",
          "type": "bytes32"
        },
        {
          "internalType": "address",
          "name": "account",
          "type": "address"
        }
      ],
      "name": "renounceRole",
      "outputs": [],
      "stateMutability": "nonpayable",
      "type": "function"
    },
    {
      "inputs": [
        {
          "internalType": "bytes32",
          "name": "role",
          "type": "bytes32"
        },
        {
          "internalType": "address",
          "name": "account",
          "type": "address"
        }
      ],
      "name": "revokeRole",
      "outputs": [],
      "stateMutability": "nonpayable",
      "type": "function"
    },
    {
      "inputs": [
        {
          "internalType": "uint256",
          "name": "policyId",
          "type": "uint256"
        },
        {
          "internalType": "uint64",
          "name": "actualDelayMinutes",
          "type": "uint64"
        }
      ],
      "name": "settlePolicy",
      "outputs": [],
      "stateMutability": "nonpayable",
      "type": "function"
    },
    {
      "inputs": [
        {
          "internalType": "bytes4",
          "name": "interfaceId",
          "type": "bytes4"
        }
      ],
      "name": "supportsInterface",
      "outputs": [
        {
          "internalType": "bool",
          "name": "",
          "type": "bool"
        }
      ],
      "stateMutability": "view",
      "type": "function"
    },
    {
      "inputs": [],
      "name": "ticketProvider",
      "outputs": [
        {
          "internalType": "contract TicketProvider",
          "name": "",
          "type": "address"
        }
      ],
      "stateMutability": "view",
      "type": "function"
    },
    {
      "inputs": [],
      "name": "token",
      "outputs": [
        {
          "internalType": "contract IERC20Decimals",
          "name": "",
          "type": "address"
        }
      ],
      "stateMutability": "view",
      "type": "function"
    },
    {
      "inputs": [],
      "name": "unpause",
      "outputs": [],
      "stateMutability": "nonpayable",
      "type": "function"
    }
  ],
  "bytecode": "0x60e060405260016003553480156200001657600080fd5b5060405162001b4438038062001b44833981016040819052620000399162000141565b6000805460ff191681556001600160a01b0380871660805284811660a052831660c0526200006890856200009f565b620000947f68e79a7bf1e0bc45d0a330c573bc367f9cf464fd326078812f301165fbda4ef1826200009f565b5050505050620001c1565b60008281526001602090815260408083206001600160a01b038516845290915290205460ff16620001245760008281526001602081815260408084206001600160a01b0386168086529252808420805460ff19169093179092559051339285917f2f8788117e7eff1d82e926ec794901d17c78024a50270940304540a733656f0d9190a45b5050565b6001600160a01b03811681146200013e57600080fd5b50565b600080600080600060a086880312156200015a57600080fd5b8551620001678162000128565b60208701519095506200017a8162000128565b60408701519094506200018d8162000128565b6060870151909350620001a08162000128565b6080870151909250620001b38162000128565b809150509295509295909350565b60805160a05160c05161193062000214600039600081816102260152610600015260008181610188015281816104fc01526109630152600081816102ee015281816107860152610bc601526119306000f3fe608060405234801561001057600080fd5b50600436106101215760003560e01c80638456cb59116100ad578063cad0b8db11610071578063cad0b8db14610291578063ce2219a01461029a578063d3e89483146102ad578063d547741f146102d6578063fc0c546a146102e957600080fd5b80638456cb591461024857806391d1485414610250578063a1e6ad6714610263578063a217fddf14610276578063c74298b31461027e57600080fd5b80632f2ff15d116100f45780632f2ff15d146101e657806336568abe146101fb5780633f4ba83a1461020e5780635c975abb1461021657806373ed97711461022157600080fd5b806301ffc9a71461012657806307e2cea51461014e5780631e4e938a14610183578063248a9ca3146101c2575b600080fd5b61013961013436600461120b565b610310565b60405190151581526020015b60405180910390f35b6101757f68e79a7bf1e0bc45d0a330c573bc367f9cf464fd326078812f301165fbda4ef181565b604051908152602001610145565b6101aa7f000000000000000000000000000000000000000000000000000000000000000081565b6040516001600160a01b039091168152602001610145565b6101756101d0366004611235565b6000908152600160208190526040909120015490565b6101f96101f4366004611263565b610347565b005b6101f9610209366004611263565b610372565b6101f96103f5565b60005460ff16610139565b6101aa7f000000000000000000000000000000000000000000000000000000000000000081565b6101f961040b565b61013961025e366004611263565b61041e565b6101f96102713660046112b8565b610449565b610175600081565b6101f961028c3660046112dd565b6106d5565b61017560035481565b6101f96102a83660046112ff565b610883565b6102c06102bb366004611235565b610ce5565b6040516101459a9998979695949392919061142c565b6101f96102e4366004611263565b610ddc565b6101aa7f000000000000000000000000000000000000000000000000000000000000000081565b60006001600160e01b03198216637965db0b60e01b148061034157506301ffc9a760e01b6001600160e01b03198316145b92915050565b6000828152600160208190526040909120015461036381610e02565b61036d8383610e0c565b505050565b6001600160a01b03811633146103e75760405162461bcd60e51b815260206004820152602f60248201527f416363657373436f6e74726f6c3a2063616e206f6e6c792072656e6f756e636560448201526e103937b632b9903337b91039b2b63360891b60648201526084015b60405180910390fd5b6103f18282610e77565b5050565b600061040081610e02565b610408610ede565b50565b600061041681610e02565b610408610f30565b60009182526001602090815260408084206001600160a01b0393909316845291905290205460ff1690565b7f68e79a7bf1e0bc45d0a330c573bc367f9cf464fd326078812f301165fbda4ef161047381610e02565b600083815260026020526040902080546001600160a01b03166104a95760405163d06b96b160e01b815260040160405180910390fd5b6000600782015460ff1660048111156104c4576104c46113f4565b146104e25760405163475a253560e01b815260040160405180910390fd5b6040516302c8af3360e61b81526000906001600160a01b037f0000000000000000000000000000000000000000000000000000000000000000169063b22bccc0906105349060018601906004016114e5565b606060405180830381865afa158015610551573d6000803e3d6000fd5b505050506040513d601f19601f820116820180604052508101906105759190611596565b9050806040015161059957604051632884e45360e11b815260040160405180910390fd5b8051600483015460009081906001600160401b03600160801b90910481169088161061066157505060068301548354604051632089aac360e11b81526001600160a01b038481166004830152918216602482015260448101899052606481018390526001917f00000000000000000000000000000000000000000000000000000000000000001690634113558690608401600060405180830381600087803b15801561064457600080fd5b505af1158015610658573d6000803e3d6000fd5b50505050610669565b506000905060025b60078501805482919060ff1916600183600481111561068a5761068a6113f4565b0217905550877ff8115058ebbb0e03e95c9d2e50fe37c76d2d41dea3ad830a55d5cb66452d24ec8289856040516106c393929190611605565b60405180910390a25050505050505050565b60006106e081610e02565b600083815260026020526040902080546001600160a01b03166107165760405163d06b96b160e01b815260040160405180910390fd5b6000600782015460ff166004811115610731576107316113f4565b1461074f5760405163475a253560e01b815260040160405180910390fd5b60078101805460ff19166003179055805460405163a9059cbb60e01b81526001600160a01b039182166004820152602481018590527f00000000000000000000000000000000000000000000000000000000000000009091169063a9059cbb906044016020604051808303816000875af11580156107d1573d6000803e3d6000fd5b505050506040513d601f19601f820116820180604052508101906107f5919061162d565b61083a5760405162461bcd60e51b81526020600482015260166024820152751c99599d5b99081d1c985b9cd9995c8819985a5b195960521b60448201526064016103de565b80546040518481526001600160a01b039091169085907f029476312646dff9a0c08c06d0ba67e5f3491eeb42ca81ef18326c35f3d37bb79060200160405180910390a350505050565b61088b610f6d565b600082116108c75760405162461bcd60e51b815260206004820152600960248201526807072656d69756d3d360bc1b60448201526064016103de565b600081116109025760405162461bcd60e51b815260206004820152600860248201526707061796f75743d360c41b60448201526064016103de565b6000836001600160401b0316116109495760405162461bcd60e51b815260206004820152600b60248201526a07468726573686f6c643d360ac1b60448201526064016103de565b6040516302c8af3360e61b81526000906001600160a01b037f0000000000000000000000000000000000000000000000000000000000000000169063b22bccc09061099a908b908b90600401611671565b606060405180830381865afa1580156109b7573d6000803e3d6000fd5b505050506040513d601f19601f820116820180604052508101906109db9190611596565b905080604001516109ff57604051632884e45360e11b815260040160405180910390fd5b6003805460009182610a10836116a3565b9091555060208084015160408051610140810182523381528151601f8e018590048502810185019092528c8252939450909242929091828201918e908e90819084018382808284376000920182905250938552505050602082018c9052604082018b90526001600160401b03808616606084015284811660808401528a1660a083015260c0820189905260e08201889052610100909101526000848152600260209081526040909120825181546001600160a01b0319166001600160a01b03909116178155908201516001820190610ae8908261170a565b50604082015160028201556060820151600382015560808201516004808301805460a086015160c08701516001600160401b03908116600160801b0267ffffffffffffffff60801b19928216600160401b026fffffffffffffffffffffffffffffffff19909416919096161791909117169290921790915560e0830151600583015561010083015160068301556101208301516007830180549192909160ff1916906001908490811115610b9e57610b9e6113f4565b0217905550506040516323b872dd60e01b8152336004820152306024820152604481018890527f00000000000000000000000000000000000000000000000000000000000000006001600160a01b031691506323b872dd906064016020604051808303816000875af1158015610c18573d6000803e3d6000fd5b505050506040513d601f19601f82011682018060405250810190610c3c919061162d565b610c885760405162461bcd60e51b815260206004820152601760248201527f7072656d69756d207472616e73666572206661696c656400000000000000000060448201526064016103de565b336001600160a01b0316837fe43e2f8385060053af9380fcf5079afa5969f7db89066392123fe04f91a8e4b28d8d8d8d8c8c8f8b604051610cd09897969594939291906117c9565b60405180910390a35050505050505050505050565b600260205260009081526040902080546001820180546001600160a01b039092169291610d11906114ab565b80601f0160208091040260200160405190810160405280929190818152602001828054610d3d906114ab565b8015610d8a5780601f10610d5f57610100808354040283529160200191610d8a565b820191906000526020600020905b815481529060010190602001808311610d6d57829003601f168201915b5050505060028301546003840154600485015460058601546006870154600790970154959693959294506001600160401b0380831694600160401b8404821694600160801b9094049091169260ff168a565b60008281526001602081905260409091200154610df881610e02565b61036d8383610e77565b6104088133610fb5565b610e16828261041e565b6103f15760008281526001602081815260408084206001600160a01b0386168086529252808420805460ff19169093179092559051339285917f2f8788117e7eff1d82e926ec794901d17c78024a50270940304540a733656f0d9190a45050565b610e81828261041e565b156103f15760008281526001602090815260408083206001600160a01b0385168085529252808320805460ff1916905551339285917ff6391f5c32d9c69d2a47ea670b442974b53935d1edc7fd64eb21e047a839171b9190a45050565b610ee661100e565b6000805460ff191690557f5db9ee0a495bf2e6ff9c91a7834c1ba4fdd244a5e8aa4e537bd38aeae4b073aa335b6040516001600160a01b03909116815260200160405180910390a1565b610f38610f6d565b6000805460ff191660011790557f62e78cea01bee320cd4e420270b5ea74000d11b0c9f74754ebdbfc544b05a258610f133390565b60005460ff1615610fb35760405162461bcd60e51b815260206004820152601060248201526f14185d5cd8589b194e881c185d5cd95960821b60448201526064016103de565b565b610fbf828261041e565b6103f157610fcc81611057565b610fd7836020611069565b604051602001610fe892919061181b565b60408051601f198184030181529082905262461bcd60e51b82526103de91600401611890565b60005460ff16610fb35760405162461bcd60e51b815260206004820152601460248201527314185d5cd8589b194e881b9bdd081c185d5cd95960621b60448201526064016103de565b60606103416001600160a01b03831660145b606060006110788360026118a3565b6110839060026118ba565b6001600160401b0381111561109a5761109a611570565b6040519080825280601f01601f1916602001820160405280156110c4576020820181803683370190505b509050600360fc1b816000815181106110df576110df6118cd565b60200101906001600160f81b031916908160001a905350600f60fb1b8160018151811061110e5761110e6118cd565b60200101906001600160f81b031916908160001a90535060006111328460026118a3565b61113d9060016118ba565b90505b60018111156111b5576f181899199a1a9b1b9c1cb0b131b232b360811b85600f1660108110611171576111716118cd565b1a60f81b828281518110611187576111876118cd565b60200101906001600160f81b031916908160001a90535060049490941c936111ae816118e3565b9050611140565b5083156112045760405162461bcd60e51b815260206004820181905260248201527f537472696e67733a20686578206c656e67746820696e73756666696369656e7460448201526064016103de565b9392505050565b60006020828403121561121d57600080fd5b81356001600160e01b03198116811461120457600080fd5b60006020828403121561124757600080fd5b5035919050565b6001600160a01b038116811461040857600080fd5b6000806040838503121561127657600080fd5b8235915060208301356112888161124e565b809150509250929050565b6001600160401b038116811461040857600080fd5b80356112b381611293565b919050565b600080604083850312156112cb57600080fd5b82359150602083013561128881611293565b600080604083850312156112f057600080fd5b50508035926020909101359150565b600080600080600080600060c0888a03121561131a57600080fd5b87356001600160401b038082111561133157600080fd5b818a0191508a601f83011261134557600080fd5b81358181111561135457600080fd5b8b602082850101111561136657600080fd5b60209283019950975050880135945060408801359350611388606089016112a8565b92506080880135915060a0880135905092959891949750929550565b60005b838110156113bf5781810151838201526020016113a7565b50506000910152565b600081518084526113e08160208601602086016113a4565b601f01601f19169290920160200192915050565b634e487b7160e01b600052602160045260246000fd5b6005811061142857634e487b7160e01b600052602160045260246000fd5b9052565b6001600160a01b038b168152610140602082018190526000906114518382018d6113c8565b9150508960408301528860608301526001600160401b03808916608084015280881660a084015280871660c0840152508460e08301528361010083015261149c61012083018461140a565b9b9a5050505050505050505050565b600181811c908216806114bf57607f821691505b6020821081036114df57634e487b7160e01b600052602260045260246000fd5b50919050565b60006020808352600084546114f9816114ab565b8084870152604060018084166000811461151a576001811461153457611562565b60ff1985168984015283151560051b890183019550611562565b896000528660002060005b8581101561155a5781548b820186015290830190880161153f565b8a0184019650505b509398975050505050505050565b634e487b7160e01b600052604160045260246000fd5b805180151581146112b357600080fd5b6000606082840312156115a857600080fd5b604051606081018181106001600160401b03821117156115ca576115ca611570565b60405282516115d88161124e565b815260208301516115e881611293565b60208201526115f960408401611586565b60408201529392505050565b60608101611613828661140a565b6001600160401b0393909316602082015260400152919050565b60006020828403121561163f57600080fd5b61120482611586565b81835281816020850137506000828201602090810191909152601f909101601f19169091010190565b602081526000611685602083018486611648565b949350505050565b634e487b7160e01b600052601160045260246000fd5b6000600182016116b5576116b561168d565b5060010190565b601f82111561036d57600081815260208120601f850160051c810160208610156116e35750805b601f850160051c820191505b81811015611702578281556001016116ef565b505050505050565b81516001600160401b0381111561172357611723611570565b6117378161173184546114ab565b846116bc565b602080601f83116001811461176c57600084156117545750858301515b600019600386901b1c1916600185901b178555611702565b600085815260208120601f198616915b8281101561179b5788860151825594840194600190910190840161177c565b50858210156117b95787850151600019600388901b60f8161c191681555b5050505050600190811b01905550565b60e0815260006117dd60e083018a8c611648565b6020830198909852506040810195909552606085019390935260808401919091526001600160401b0390811660a08401521660c09091015292915050565b7f416363657373436f6e74726f6c3a206163636f756e74200000000000000000008152600083516118538160178501602088016113a4565b7001034b99036b4b9b9b4b733903937b6329607d1b60179184019182015283516118848160288401602088016113a4565b01602801949350505050565b60208152600061120460208301846113c8565b80820281158282048414176103415761034161168d565b808201808211156103415761034161168d565b634e487b7160e01b600052603260045260246000fd5b6000816118f2576118f261168d565b50600019019056fea2646970667358221220fce679b099edbc10a37e5cae78ea50600f0e5952c837abc1d2874808b216389764736f6c63430008140033",
  "linkReferences": {},
  "deployedLinkReferences": {}
}